:020000040800F2
:10000000002800206D110008D50D0008D70D00084C
:10001000D90D0008DB0D0008DD0D00080000000010
:10002000000000000000000000000000DF0D0008DC
:10003000E10D000800000000E30D0008E50D0008D8
:10004000B5110008B5110008B5110008B511000878
:10005000B5110008B5110008B5110008B511000868
:10006000B5110008B5110008ED0D0008B511000824
:10007000F90D0008B5110008B5110008B511000808
:10008000090E0008B5110008B5110008B5110008E7
:10009000B5110008B5110008B5110008190E0008C7
:1000A000B5110008B5110008B5110008B511000818
:1000B000B5110008250E000800000000B511000869
:1000C000B51100080000000000000000B511000894
:1000D00000000000B5110008B51100080000000084
:1000E000B5110008B5110008B511000800000000A6
:1000F0000000000000000000000000000000000000
:0C01000000000000000000005FF808F1A3
:1001100010B5054C237833B9044B13B10448AFF341
:1001200000800123237010BD4C040020000000005B
:10013000C827000808B5034B1BB103490348AFF3B8
:10014000008008BD0000000050040020C8270008FF
:1001500081F0004102E000BF83F0004330B54FEA78
:1001600041044FEA430594EA050F08BF90EA020FE5
:100170001FBF54EA000C55EA020C7FEA645C7FEA78
:10018000655C00F0E2804FEA5454D4EB5555B8BF9B
:100190006D420CDD2C4480EA020281EA030382EA0C
:1001A000000083EA010180EA020281EA0303362D9E
:1001B00088BF30BD11F0004F4FEA01314FF4801C71
:1001C0004CEA113102D0404261EB410113F0004F83
:1001D0004FEA03334CEA133302D0524263EB43033A
:1001E00094EA050F00F0A780A4F10104D5F1200ED8
:1001F0000DDB02FA0EFC22FA05F2801841F1000133
:1002000003FA0EF2801843FA05F359410EE0A5F106
:1002100020050EF1200E012A03FA0EFC28BF4CF037
:10022000020C43FA05F3C01851EBE37101F00045ED
:1002300007D54FF0000EDCF1000C7EEB00006EEBFA
:100240000101B1F5801F1BD3B1F5001F0CD3490884
:100250005FEA30004FEA3C0C04F101044FEA4452DB
:1002600012F5800F80F09A80BCF1004F08BF5FEA62
:10027000500C50F1000041EB045141EA050130BD42
:100280005FEA4C0C404141EB0101013C28BFB1F554
:10029000801FE9D291F0000F04BF01460020B1FA9F
:1002A00081F308BF2033A3F10B03B3F120020CDA72
:1002B0000C3208DD02F1140CC2F10C0201FA0CF050
:1002C00021FA02F10CE002F11402D8BFC2F1200CB5
:1002D00001FA02F120FA0CFCDCBF41EA0C0190406B
:1002E000E41AA2BF01EB0451294330BD6FEA0404B4
:1002F0001F3C1CDA0C340EDC04F11404C4F120029F
:1003000020FA04F001FA02F340EA030021FA04F3B0
:1003100045EA030130BDC4F10C04C4F1200220FA07
:1003200002F001FA04F340EA0300294630BD21FA45
:1003300004F0294630BD94F0000F83F4801306BF0B
:1003400081F480110134013D4EE77FEA645C18BFFF
:100350007FEA655C29D094EA050F08BF90EA020F96
:1003600005D054EA000C04BF1946104630BD91EA8E
:10037000030F1EBF0021002030BD5FEA545C05D191
:100380004000494128BF41F0004130BD14F58004D0
:100390003CBF01F5801130BD01F0004545F0FE4144
:1003A00041F470014FF0000030BD7FEA645C1ABF79
:1003B000194610467FEA655C1CBF0B46024650EAB0
:1003C000013406BF52EA033591EA030F41F40021DC
:1003D00030BD00BF90F0000F04BF0021704730B562
:1003E0004FF4806404F132044FF000054FF0000137
:1003F00050E700BF90F0000F04BF0021704730B5F8
:100400004FF4806404F1320410F0004548BF4042CC
:100410004FF000013EE700BF42004FEAE2014FEA21
:1004200031014FEA02701FBF12F07F4393F07F4FFC
:1004300081F06051704732F07F4208BF704793F0FF
:100440007F4F04BF41F40021704730B54FF4607412
:1004500001F0004521F000411CE700BF50EA010215
:1004600008BF704730B54FF000050AE050EA0102BE
:1004700008BF704730B511F0004502D5404261EB2E
:1004800041014FF4806404F132045FEA915C3FF46F
:10049000D8AE4FF003025FEADC0C18BF03325FEA0C
:1004A000DC0C18BF033202EBDC02C2F1200300FABD
:1004B00003FC20FA02F001FA03FE40EA0E0021FAE2
:1004C00002F11444BDE600BF70B54FF0FF0C4CF4D0
:1004D000E06C1CEA11541DBF1CEA135594EA0C0F82
:1004E00095EA0C0F00F0DEF82C4481EA030621EABD
:1004F0004C5123EA4C5350EA013518BF52EA0335F8
:1005000041F4801143F4801338D0A0FB02CE4FF0A9
:100510000005E1FB02E506F00042E0FB03E54FF0D9
:100520000006E1FB03569CF0000F18BF4EF0010ED1
:10053000A4F1FF04B6F5007F64F5407404D25FEACD
:100540004E0E6D4146EB060642EAC62141EA555180
:100550004FEAC52040EA5E504FEACE2EB4F1FD0CC2
:1005600088BFBCF5E06F1ED8BEF1004F08BF5FEA40
:10057000500E50F1000041EB045170BD06F00046F2
:1005800046EA010140EA020081EA0301B4EB5C049F
:10059000C2BFD4EB0C0541EA045170BD41F4801197
:1005A0004FF0000E013C00F3AB8014F1360FDEBFBC
:1005B000002001F0004170BDC4F10004203C35DA98
:1005C0000C341BDC04F11404C4F1200500FA05F31B
:1005D00020FA04F001FA05F240EA020001F00042BC
:1005E00021F0004110EBD37021FA04F642EB060132
:1005F0005EEA430E08BF20EAD37070BDC4F10C045C
:10060000C4F1200500FA04F320FA05F001FA04F21F
:1006100040EA020001F0004110EBD37041F100010B
:100620005EEA430E08BF20EAD37070BDC4F1200516
:1006300000FA05F24EEA020E20FA04F301FA05F27E
:1006400043EA020321FA04F001F0004121FA04F226
:1006500020EA020000EBD3705EEA430E08BF20EAF6
:10066000D37070BD94F0000F0FD101F00046400030
:1006700041EB010111F4801F08BF013CF7D041EAB2
:10068000060195F0000F18BF704703F000465200B6
:1006900043EB030313F4801F08BF013DF7D043EA87
:1006A0000603704794EA0C0F0CEA135518BF95EA3D
:1006B0000C0F0CD050EA410618BF52EA4306D1D1C4
:1006C00081EA030101F000414FF0000070BD50EAE3
:1006D000410606BF1046194652EA430619D094EA6D
:1006E0000C0F02D150EA013613D195EA0C0F05D157
:1006F00052EA03361CBF104619460AD181EA0301AB
:1007000001F0004141F0FE4141F470014FF0000062
:1007100070BD41F0FE4141F4780170BD70B54FF0FD
:10072000FF0C4CF4E06C1CEA11541DBF1CEA13557D
:1007300094EA0C0F95EA0C0F00F0A7F8A4EB05045F
:1007400081EA030E52EA03354FEA013100F0888056
:100750004FEA03334FF0805545EA131343EA12631F
:100760004FEA022245EA111545EA10654FEA0026D4
:100770000EF000419D4208BF964244F1FD0404F58D
:10078000407402D25B084FEA3202B61A65EB0305E9
:100790005B084FEA32024FF480104FF4002CB6EBA6
:1007A000020E75EB030E22BFB61A754640EA0C0026
:1007B0005B084FEA3202B6EB020E75EB030E22BF66
:1007C000B61A754640EA5C005B084FEA3202B6EBA7
:1007D000020E75EB030E22BFB61A754640EA9C0066
:1007E0005B084FEA3202B6EB020E75EB030E22BF36
:1007F000B61A754640EADC0055EA060E18D04FEAF4
:10080000051545EA16754FEA06164FEAC30343EA93
:1008100052734FEAC2025FEA1C1CC0D111F4801F60
:100820000BD141EA00014FF000004FF0004CB6E759
:1008300011F4801F04BF01430020B4F1FD0C88BFF8
:10084000BCF5E06F3FF6AFAEB5EB030C04BFB6EB03
:10085000020C5FEA500C50F1000041EB045170BDF6
:100860000EF0004E4EEA113114EB5C04C2BFD4EB23
:100870000C0541EA045170BD41F480114FF0000EA7
:10088000013C90E645EA060E8DE60CEA135594EA23
:100890000C0F08BF95EA0C0F3FF43BAF94EA0C0F26
:1008A0000AD150EA01347FF434AF95EA0C0F7FF49B
:1008B00025AF104619462CE795EA0C0F06D152EAEF
:1008C00003353FF4FDAE1046194622E750EA4106D3
:1008D00018BF52EA43067FF4C5AE50EA41047FF4E4
:1008E0000DAF52EA43057FF4EBAE12E74A0011D296
:1008F00012F5001211D20DD56FF47873B3EB62527A
:100900000ED44FEAC12343F0004343EA505323FA85
:1009100002F070474FF00000704750EA013002D1FA
:100920004FF0FF3070474FF00000704700B583B0C4
:100930000E4B5A6942F001025A615B6903F00103F0
:100940000193019B002211460C2000F0A5FC0C2015
:1009500000F0DAFC00221146102000F09DFC10206F
:1009600000F0D2FC03B05DF804FB00BF00100240B1
:1009700070B588B0002404940594069407942D4B18
:100980009A6942F010029A619A6902F0100200928C
:10099000009A9A6942F020029A619A6902F0200254
:1009A0000192019A9A6942F004029A619A6902F0EE
:1009B00004020292029A9A6942F008029A619B69C3
:1009C00003F008030393039B4FF460430493032550
:1009D000059504A9184800F091FD49F2AF2304934E
:1009E0000595164E04A9304600F088FD5023049367
:1009F000134B0593069404A9304600F07FFD4FF693
:100A0000F7730493059504A90E4800F077FD22467C
:100A100021460A2000F040FC0A2000F075FC224626
:100A20002146172000F038FC172000F06DFC08B0BC
:100A300070BD00BF001002400010014000080140DE
:100A400000003110000C014038B504460D4699B93C
:100A5000036800225A634FF4FA6000F0F7FBDDB937
:100A6000236832225A634FF4FA6000F0EFFB1DBB9B
:100A7000236800225A6338BD042905D0082907D00D
:100A8000036800221A64E6E7036800229A63E2E73B
:100A900003680022DA63DEE7042D05D0082D07D0B5
:100AA000236832221A64DEE7236832229A63DAE787
:100AB00023683222DA63D6E7042D05D0082D07D04B
:100AC000236800221A64D6E7236800229A63D2E7DB
:100AD00023680022DA63CEE7094B1B7813B1012BA0
:100AE00007D07047064B01221A70064B00221A707D
:100AF00070470023024A1370024A1370704700BF08
:100B00006B0400206A040020D0B504464C4B1B78CF
:100B100013B1012B48D0D0BD4A4B9988814231D0C6
:100B2000484B9988A142F6D1474B1B78012BF2D153
:100B3000444B186800F0F2FD0028ECD1424B022231
:100B40001A70424B5C684FF080435B6A04FB0333CE
:100B5000642403FB04F43E4B1868FFF73BFC36A308
:100B6000D3E90023FFF7B0FC06460F462046FFF707
:100B700031FC32463B46FFF7D1FDFFF7B7FE354B60
:100B80001870C8E7304B1B78002BC9D12D4B186863
:100B900000F0C4FD0128C3D12C4B1B6800225A620F
:100BA000294B01221A70B6E72B4B9988814231D02C
:100BB000294B9988A142AED1234B1B78012BAAD196
:100BC000254B186800F0AAFD0028A4D11E4B022274
:100BD0001A704FF080435B6A1C4A546804FB03336D
:100BE000642403FB04F41A4B1868FFF7F3FB12A309
:100BF000D3E90023FFF768FC06460F462046FFF7BF
:100C0000E9FB32463B46FFF789FDFFF76FFE134BCA
:100C1000187080E70C4B1B78002BC9D10E4B18685D
:100C200000F07CFD0128C3D1084B1B6800225A62EA
:100C3000054B01221A706EE7FCA9F1D24D62603FAC
:100C40006B040020000000206A0400204005002002
:100C50006C040020680400200800002069040020C3
:100C600072B6FEE700B591B02822002106A801F077
:100C7000E9FC00230193029303930493059301225B
:100C800006924FF4803307930A9202220D920E933C
:100C90004FF480130F9306A800F06CFD88B90F2362
:100CA000019302230293002303934FF48062049282
:100CB0000593012101A800F08FFF20B911B05DF864
:100CC00004FBFFF7CDFFFFF7CBFF000008B500F0F6
:100CD00099FAFFF7C7FF00F055FF274B1860FFF7A1
:100CE00047FEFFF723FE00F0BBF900F0DDF800F04F
:100CF000A5F8224C0021204601F0B8FB082120462F
:100D000001F0B4FB00212046FFF79EFE082120469B
:100D1000FFF79AFE1A4C204601F016FA204601F021
:100D2000EDF8184801F0C0F807E0596B81B97AB1C5
:100D30005A630DE0DB6B03B9A2B9104B1B68596B0A
:100D4000114A12789142F0D0596B0029EDD05A63C4
:100D5000D96B0E4A12789142ECD0D96B0029E9D0B8
:100D6000DA63EAE7054C08212046FFF76DFE2368A9
:100D7000064A1278DA63E0E76C040020F8040020E9
:100D80008805002040050020680400206904002038
:100D900082B00E4B9A6942F001029A619A6902F0A0
:100DA00001020092009ADA6942F08052DA61DB694E
:100DB00003F080530193019B054A536823F0E063DD
:100DC00043F00073536002B0704700BF0010024050
:100DD00000000140FEE7FEE7FEE7FEE7FEE77047A2
:100DE0007047704708B500F01FFA08BD08B510201D
:100DF00000F09CFC08BD000008B5024800F0DCFAD9
:100E000008BD00BF7004002008B5024800F0D4FA05
:100E100008BD00BFB404002008B5402000F086FCE7
:100E200008BD000008B5FFF757FE024801F09CF826
:100E300008BD00BF880500207047000000B587B0DE
:100E400000230293039304930593009301931548A1
:100E50004FF0804202602F22426083604FF6FF72A3
:100E6000C2600361836101F06FF990B94FF4805360
:100E7000029302A90B4801F06BFA68B900230093B2
:100E800001936946074801F05BFB40B907B05DF884
:100E900004FBFFF7E5FEE9E7FFF7E2FEEEE7FFF709
:100EA000DFFEF3E74005002000B587B00023029382
:100EB000039304930593009301931548154A026028
:100EC00040F2AF42426083604FF6FF72C26003613E
:100ED000836101F039F990B94FF48053029302A96C
:100EE0000B4801F035FA68B9002300930193694675
:100EF000074801F025FB40B907B05DF804FBFFF798
:100F0000AFFEE9E7FFF7ACFEEEE7FFF7A9FEF3E778
:100F1000880500200004004010B584B00368354AFD
:100F2000934207D0B3F1804F44D0334A93424DD01F
:100F300004B010BD0446314B9A6942F400629A61D4
:100F40009B6903F400630193019B2D482D4B0360C3
:100F500010234360002383608022C2604FF48072BC
:100F600002614FF4806242618361C36100F0EEF977
:100F7000D0B9234B63625C622348244B0360102387
:100F80004360002383608022C2604FF4807202615C
:100F90004FF4806242618361C36100F0D7F930B9D8
:100FA000194BE3625C62C3E7FFF75AFEE1E7FFF724
:100FB00057FEF5E703F50433DA6942F00102DA611E
:100FC000DB6903F001030293029BB1E70B4BDA6983
:100FD00042F00202DA61DB6903F002030393039B30
:100FE000002211461D2000F057F91D2000F08CF959
:100FF0009EE700BF002C01400004004000100240AA
:10100000700400201C000240B40400206C00024068
:1010100000B587B0002302930393049305930268FD
:101020000D4B9A4202D007B05DF804FB03F5644310
:101030009A6942F004029A619B6903F004030193E8
:10104000019B4FF45063029302230393059302A97B
:10105000024800F053FAE6E7002C01400008014086
:1010600010B596B00024129413941494159410940F
:10107000119409940A940B940C940D940E940F946B
:101080002022214601A801F0DDFA3648364B0360E4
:101090002F23436084606323C360046144618461DF
:1010A00001F052F8002844D14FF48053129312A952
:1010B0002C4801F04DF900283ED12A4801F070F883
:1010C00000283CD100231093119310A9254801F06A
:1010D00037FA002836D16023099300220A920B9236
:1010E0000C920D920E920F9209A91E4801F0B6F8CB
:1010F00058BB082209A91B4801F0B0F840BB0C22DC
:1011000009A9184801F0AAF828BB0023019302930B
:101110000393049305934FF400520692089301A998
:10112000104801F03FFAC8B90E48FFF771FF16B03A
:1011300010BDFFF795FDB7E7FFF792FDBDE7FFF79D
:101140008FFDBFE7FFF78CFDC5E7FFF789FDD0E70F
:10115000FFF786FDD3E7FFF783FDD6E7FFF780FDB6
:10116000E2E700BFF8040020002C0140FFF764FE16
:101170000B480C490C4A002302E0D458C4500433F5
:10118000C4188C42F9D3094A094C002301E01360CA
:101190000432A242FBD301F031FAFFF797FD70470A
:1011A000000000204C040020142800084C040020FB
:1011B000D8050020FEE7000010B504460E4B187855
:1011C0004FF47A73B3FBF0F30C4A1068B0FBF3F002
:1011D00000F0A8F868B90F2C01D901200AE000221C
:1011E00021464FF0FF3000F057F8054B1C600020FF
:1011F00000E0012010BD00BF1400002010000020FE
:101200001800002008B5074A136843F01003136064
:10121000032000F02FF80F20FFF7CEFFFFF7B8FDF7
:10122000002008BD00200240034A1168034B1B78D0
:101230000B441360704700BFD0050020140000204D
:10124000014B1868704700BFD005002038B5044630
:10125000FFF7F6FF0546B4F1FF3F02D0044B1B78C1
:101260001C44FFF7EDFF401BA042FAD338BD00BF7E
:1012700014000020074AD36823F4E0631B041B0C0E
:10128000000200F4E060034343F0BF6343F4003323
:10129000D360704700ED00E000B5194BDB68C3F385
:1012A0000223C3F1070CBCF1040F28BF4FF0040C5C
:1012B00003F1040EBEF1060F18D9033B4FF0FF3EB9
:1012C0000EFA0CFC21EA0C0199400EFA03F322EA13
:1012D0000303194300280BDB0901C9B200F1604088
:1012E00000F5614080F800135DF804FB0023E5E79A
:1012F00000F00F000901C9B2024B1954F4E700BF16
:1013000000ED00E014ED00E0002807DB00F01F0214
:10131000400901239340024A42F82030704700BF41
:1013200000E100E00138B0F1807F0BD24FF0E02304
:101330005861054AF02182F82310002098610722A5
:101340001A6170470120704700ED00E060B310B4EF
:1013500002460168154B0B441548A0FB03031B090B
:101360009B001364134BD363022382F82130086877
:1013700020F47F5020F03000536894682343D468F1
:101380002343146923435469234394692343D46951
:10139000234303430B6000209063012382F8213034
:1013A00082F8200010BC704701207047F8FFFDBF95
:1013B000CDCCCCCC0000024038B5C36B1A680468B1
:1013C0002568016C04238B40134235D015F0040FBF
:1013D00032D0236813F0200F03D1236823F00403D5
:1013E00023600368434A934214D01432934218D0C6
:1013F0001432934217D01432934217D014329342CE
:1014000017D01432934202D04FF0806203E04FF4C1
:10141000800200E00422384B5A60C36A03B1984747
:1014200038BD4022F7E74FF48062F4E74FF4804282
:10143000F1E74FF48022EEE702238B4013423CD0C9
:1014400015F0020F39D0236813F0200F06D123685E
:1014500023F00A032360012380F821300368254A22
:10146000934214D0143293421CD0143293421BD0B6
:10147000143293421BD0143293421BD01432934245
:1014800002D04FF0007203E04FF4001200E002229D
:10149000194B5A60002380F82030836A002BBFD09C
:1014A0009847BDE72022F3E74FF40072F0E74FF4CE
:1014B0000052EDE74FF40032EAE7082303FA01F1A6
:1014C0001142ADD015F0080FAAD0236823F00E0307
:1014D0002360026CC16B012303FA02F24A6083634A
:1014E00080F82130002380F82030036B002B97D048
:1014F000984795E7080002400000024070B582B0AE
:101500000024A4468BE07F4DAA4210D007D97E4D1F
:10151000AA420CD005F58035AA4208D015E0A5F501
:101520008015AA4203D005F57025AA4209D18A6820
:10153000002A00F0BF80012A00F0B7804361082430
:1015400003E0A5F58015AA42F1D0BEF1FF0F00F22D
:10155000B3800646BEF1FF0F00F2B0804FEA8C0266
:1015600033680F25954023EA050304FA02F213437A
:1015700033604B6813F0805F4FD0644B9A6942F040
:1015800001029A619B6903F001030193019B4FEAF9
:101590009C02951C5E4B53F825600CF003039D00E4
:1015A0000F23AB4026EA03065A4B984200F08C808A
:1015B00003F58063984200F0898003F580639842C8
:1015C00000F080800323AB4033430232504D45F896
:1015D00022304B6813F4801F7AD04F4A936843EA55
:1015E0000E0393604B6813F4001F77D04A4AD36808
:1015F00043EA0E03D3604B6813F4003F74D0464AAD
:10160000536843EA0E0353604B6813F4803F71D074
:10161000414A136843EA0E0313600CF1010C0A6897
:1016200032FA0CF36CD0012303FA0CF302EA030E36
:1016300033EA0202F1D14A68122A3FF664AF122A55
:1016400083D801A555F822F02F150008951600083B
:101650009F160008B11600084B1500084B1500082E
:101660004B1500084B1500084B1500084B150008DA
:101670004B1500084B1500084B1500084B150008CA
:101680004B1500084B1500084B150008991600086B
:10169000A5160008CC6858E7CC68043455E7CC6838
:1016A000083452E7CC680C344FE7036108244CE758
:1016B00000244AE7042448E7061D4BE7ACF1080282
:1016C00092004DE702237EE700237CE701237AE7BF
:1016D000114A936823EA0E03936083E70E4AD368A6
:1016E00023EA0E03D36086E70B4A536823EA0E030E
:1016F000536089E7084A136823EA0E0313608CE7F6
:1017000002B070BD00002210000031100010024035
:1017100000000140000801400004014083681942B4
:1017200001D00120704700207047000008B5054B2C
:101730005B69034200D108BD024B5861FFF7E4F931
:10174000F9E700BF0004014082B0084B1B68084A5B
:10175000A2FB03235B0A00FB03F3019300BF019B81
:101760005A1E0192002BF9D102B0704710000020E0
:10177000D34D6210002800F0F18170B582B00446AC
:10178000036813F0010F2CD0994B5B6803F00C0336
:10179000042B1DD0964B5B6803F00C03082B12D072
:1017A0006368B3F5803F41D0002B55D103F18043EE
:1017B00003F504331A6822F480321A601A6822F49E
:1017C00080221A6037E08A4B5B6813F4803FE7D0D1
:1017D000874B1B6813F4003F03D06368002B00F0B5
:1017E000BF81236813F0020F75D0814B5B6813F043
:1017F0000C0F5FD07E4B5B6803F00C03082B54D0BA
:101800002369002B00F08A807A4B01221A60FFF7CF
:1018100017FD0546764B1B6813F0020F75D1FFF7D5
:101820000FFD401B0228F5D903209EE1704A136882
:1018300043F480331360636843B3FFF701FD05464B
:101840006B4B1B6813F4003FCBD1FFF7F9FC401B37
:101850006428F5D9032088E1B3F5A02F09D0644BA3
:101860001A6822F480321A601A6822F480221A6000
:10187000E1E703F18043A3F53C331A6842F4802288
:101880001A601A6842F480321A60D4E7FFF7D8FC75
:101890000546574B1B6813F4003FA2D0FFF7D0FC5E
:1018A000401B6428F5D903205FE1514B5B6813F4BA
:1018B000803FA5D14E4B1B6813F0020F03D0236964
:1018C000012B40F04F814A4A136823F0F803616905
:1018D00043EAC1031360236813F0080F33D0A369F0
:1018E000002B5CD0434B0122C3F88024FFF7A8FCF7
:1018F00005463F4B5B6A13F0020F21D1FFF7A0FCB6
:10190000401B0228F5D903202FE1394A136823F040
:10191000F803616943EAC1031360DCE7354B002239
:101920001A60FFF78DFC0546314B1B6813F0020F60
:10193000D1D0FFF785FC401B0228F5D9032014E124
:101940000120FFF701FF236813F0040F00F09680D9
:10195000274BDB6913F0805F34D1254BDA6942F005
:101960008052DA61DB6903F080530193019B01250A
:10197000214B1B6813F4807F26D0E368012B3DD0F8
:10198000002B53D103F1804303F504331A6A22F08C
:1019900001021A621A6A22F004021A6233E0154B3D
:1019A0000022C3F88024FFF74BFC0546104B5B6A0E
:1019B00013F0020FC7D0FFF743FC401B0228F5D9F4
:1019C0000320D2E00025D3E70B4A136843F4807369
:1019D0001360FFF735FC0646074B1B6813F4807F46
:1019E000CBD1FFF72DFC801B6428F5D90320BCE088
:1019F0000010024000004242007000405F4A136A3B
:101A000043F001031362E36833B3FFF719FC0646A2
:101A10005A4B1B6A13F0020F2FD1FFF711FC801BEA
:101A200041F288339842F3D903209EE0052B09D078
:101A3000524B1A6A22F001021A621A6A22F0040258
:101A40001A62E0E74D4B1A6A42F004021A621A6AFF
:101A500042F001021A62D6E7FFF7F2FB0646474B57
:101A60001B6A13F0020F08D0FFF7EAFB801B41F25C
:101A700088339842F3D9032077E0E5B9E369002B76
:101A800072D03E4A526802F00C02082A56D0022B4D
:101A900017D03B4B00221A66FFF7D2FB0446374BA8
:101AA0001B6813F0007F47D0FFF7CAFB001B02281A
:101AB000F5D9032059E0314AD36923F08053D3612B
:101AC000DCE72F4B00221A66FFF7BAFB05462B4BCB
:101AD0001B6813F0007F06D0FFF7B2FB401B022803
:101AE000F5D9032041E0236AB3F5803F1AD023499A
:101AF0004B6823F47413226A606A024313434B60F9
:101B00001F4B01221A66FFF79BFB04461B4B1B6809
:101B100013F0007F0ED1FFF793FB001B0228F5D9CD
:101B2000032022E0154A536823F40033A1680B43D5
:101B30005360DCE7002018E0002016E0012B16D0EF
:101B40000E4B5B6803F48031226A914211D103F499
:101B50007013626A93420ED1002006E001207047A4
:101B6000012002E0012000E0002002B070BD012051
:101B7000FBE70120F9E70120F7E700BF0010024072
:101B8000000042420F4B5B6803F00C02082A01D0B0
:101B90000D487047C3F383420C49885C13F4803FBF
:101BA0000BD0084B5B68C3F34043094AD35C064A39
:101BB00002FB00F0B0FBF3F07047064B03FB00F0B4
:101BC000704700BF0010024000127A00F0270008A2
:101BD0000028000800093D00002800F0A08070B532
:101BE0000D460446524B1B6803F007038B420BD291
:101BF0004F4A136823F007030B431360136803F085
:101C000007038B4240F08D80236813F0020F17D03A
:101C100013F0040F04D0474A536843F4E063536061
:101C2000236813F0080F04D0424A536843F460530A
:101C30005360404A536823F0F003A1680B4353609C
:101C4000236813F0010F31D06368012B20D0022BE1
:101C500025D0384A126812F0020F64D035494A681C
:101C600022F0030213434B60FFF7EAFA0646314BBA
:101C70005B6803F00C036268B3EB820F16D0FFF7CA
:101C8000DFFA801B41F288339842F0D9032045E007
:101C9000284A126812F4003FE0D101203EE0254AB4
:101CA000126812F0007FD9D1012037E0204B1B6869
:101CB00003F00703AB420AD91D4A136823F0070358
:101CC0002B431360136803F00703AB422DD1236845
:101CD00013F0040F06D0174A536823F4E063E16859
:101CE0000B435360236813F0080F07D0114A536861
:101CF00023F46053216943EAC1035360FFF742FFB5
:101D00000C4B5B68C3F303130B4AD35CD8400B4BFB
:101D100018600B4B1868FFF74FFA002070BD0120C8
:101D200070470120FAE70120F8E70120F6E700BF3D
:101D30000020024000100240E027000810000020B0
:101D40001800002070B4036A026A22F001020262E5
:101D50004668826922F073020C6844EA020523F0A7
:101D600002028B6813430D4CA04209D00B4CA042D9
:101D70000DD0466085614A684263036270BC70475B
:101D800023F00803CA68134323F00403EEE726F4A4
:101D900040764A6932438E691643EAE7002C0140D7
:101DA00030B4036A026A22F4807202624568C26932
:101DB00022F073020C68224323F400738C6843EA18
:101DC00004230F4CA04209D00D4CA0420ED0456018
:101DD000C2614A68C263036230BC704723F4006387
:101DE000CC6843EA042323F48063EDE725F44055EF
:101DF0004C6945EA04158C6945EA0415E7E700BF1C
:101E0000002C014030B4036A026A22F4805202625C
:101E10004468C26922F4E6420D6842EA052223F4CE
:101E200000538D6843EA0533074DA84206D044604D
:101E3000C2614A680264036230BC704724F4804483
:101E40004D6944EA8514F2E7002C014010B4036A9E
:101E5000046A24F001040462846924F0F00C4CEA62
:101E6000021223F00A030B438261036210BC704725
:101E700010B4036A046A24F010040462846924F430
:101E8000704C4CEA023223F0A00343EA0113826152
:101E9000036210BC7047836823F070030B4343F068
:101EA000070383607047000090F83D30DBB2012BE0
:101EB0001ED1022380F83D3003680F4A93420CD0B4
:101EC000B3F1804F09D0A2F59432934205D01A683D
:101ED00042F001021A60002070479A6802F007027F
:101EE000062A07D01A6842F001021A6000207047E3
:101EF0000120704700207047002C014090F83D30D1
:101F0000DBB2012B23D1022380F83D300268D36875
:101F100043F00103D36003680F4A93420CD0B3F13E
:101F2000804F09D0A2F59432934205D01A6842F04E
:101F300001021A60002070479A6802F00702062A20
:101F400007D01A6842F001021A6000207047012091
:101F500070470020704700BF002C01407047704759
:101F6000704770477047704710B5044603681A6998
:101F700012F0020F11D0DA6812F0020F0DD06FF0DC
:101F800002021A610123037703689B6913F0030FB0
:101F900070D0FFF7E6FF0023237723681A6912F059
:101FA000040F12D0DA6812F0040F0ED06FF00402A2
:101FB0001A610223237723689B6913F4407F5FD063
:101FC0002046FFF7CEFF0023237723681A6912F01B
:101FD000080F12D0DA6812F0080F0ED06FF0080266
:101FE0001A61042323772368DB6913F0030F4ED0B3
:101FF0002046FFF7B6FF0023237723681A6912F003
:10200000100F12D0DA6812F0100F0ED06FF010021D
:102010001A61082323772368DB6913F4407F3DD0DE
:102020002046FFF79EFF0023237723681A6912F0EA
:10203000010F03D0DA6812F0010F36D123681A6954
:1020400012F0800F03D0DA6812F0800F34D12368C9
:102050001A6912F0400F03D0DA6812F0400F32D143
:1020600023681A6912F0200F03D0DA6812F0200FEB
:1020700030D110BDFFF774FF2046FFF773FF8AE7EA
:102080002046FFF76DFF2046FFF76CFF9BE72046D9
:10209000FFF766FF2046FFF765FFACE72046FFF736
:1020A0005FFF2046FFF75EFFBDE76FF001021A6198
:1020B0002046FFF754FFC1E76FF080021A61204607
:1020C00000F09AFAC3E76FF040021A612046FFF76A
:1020D0004AFFC5E76FF020021A61204600F08BFA34
:1020E000C7E700000368174A904206D0B0F1804F5E
:1020F00003D0A2F59432904203D123F070034A68D2
:102100001343104A904206D0B0F1804F03D0A2F59D
:102110009432904203D123F44073CA68134323F0EE
:1021200080034A69134303608B68C3620B68836250
:10213000044B984202D00123436170470B6903634B
:10214000F9E700BF002C014040B310B5044690F8F9
:102150003D30F3B1022384F83D30214651F8040BA1
:10216000FFF7C0FF012384F8463084F83E3084F83E
:102170003F3084F8403084F8413084F8423084F8AD
:10218000433084F8443084F8453084F83D300020F2
:1021900010BD80F83C30FEF7BFFEDBE70120704742
:1021A00040B310B5044690F83D30F3B1022384F8F3
:1021B0003D30214651F8040BFFF794FF012384F8CA
:1021C000463084F83E3084F83F3084F8403084F85C
:1021D000413084F8423084F8433084F8443084F845
:1021E000453084F83D30002010BD80F83C30FFF7CA
:1021F000B5FEDBE70120704730B4036A026A22F0C3
:10220000100202624468826922F4E6420D6842EAE2
:10221000052223F020038D6843EA05130E4DA842E2
:1022200009D00D4DA8420ED0446082614A68826395
:10223000036230BC704723F08003CD6843EA051386
:1022400023F04003EDE724F440644D6944EA85043B
:102250008D6944EA8504E7E7002C014038B590F821
:102260003C30012B66D004460D46012380F83C30FB
:102270000C2A5AD8DFE802F0075959591B59595905
:102280003059595944000068FFF75CFD2268936992
:1022900043F0080393612268936923F00403936178
:1022A0002268936929690B43936100203EE000682E
:1022B000FFF7A2FF2268936943F4006393612268E9
:1022C000936923F48063936122689369296943EADF
:1022D00001239361002029E00068FFF761FD226877
:1022E000D36943F00803D3612268D36923F0040360
:1022F000D3612268D36929690B43D361002015E0BB
:102300000068FFF77FFD2268D36943F40063D3615F
:102310002268D36923F48063D3612268D369296971
:1023200043EA0123D361002000E00120002384F868
:102330003C3038BD0220FCE710B4846824F47F4CA4
:1023400042EA03220A4342EA0C02826010BC704750
:1023500090F83C30012B78D010B50446012380F86A
:102360003C30022380F83D300268936823F47F43B9
:1023700023F0770393600B68602B4CD029D8402B57
:1023800054D00CD9502B22D1CA6849680068FFF795
:102390005DFD50212068FFF77EFD002005E0202B29
:1023A0000DD009D9302B0AD00120012384F83D300B
:1023B000002384F83C3010BD0BB1102B05D1194619
:1023C0002068FFF768FD0020EFE70120EDE701201E
:1023D000EBE7B3F5805F34D0B3F5005F0CD1CB6889
:1023E0004A6889680068FFF7A7FF2268936843F48A
:1023F000804393600020D8E7702B24D1CB684A68D3
:1024000089680068FFF798FF2268936843F07703B4
:1024100093600020C9E7CA6849680068FFF728FD93
:1024200060212068FFF737FD0020BEE7CA684968D1
:102430000068FFF70BFD40212068FFF72CFD00200E
:10244000B3E70020B1E70120AFE70220704701F0B9
:102450001F01012303FA01FC036A23EA0C03036250
:10246000036A02FA01F10B430362704710B5044698
:10247000084631BB94F83E30DBB2013B18BF012364
:10248000002B57D1002835D1022384F83E30012299
:1024900001462068FFF7DBFF2368284A934239D0C2
:1024A0002368264A93423AD0B3F1804F37D0A2F541
:1024B0009432934233D01A6842F001021A6000202D
:1024C00039E0042908D008290DD094F84130DBB256
:1024D000013B18BF0123D3E794F83F30DBB2013B47
:1024E00018BF0123CCE794F84030DBB2013B18BFA2
:1024F0000123C5E7042805D0082807D0022384F863
:102500004130C4E7022384F83F30C0E7022384F857
:102510004030BCE75A6C42F400425A64C0E79A6803
:1025200002F00702062A07D01A6842F001021A6078
:10253000002000E0012010BD0020FCE7002C01403D
:1025400090F83C30012B28D010B4012380F83C30A7
:10255000022380F83D3003685A689C6822F0700CB2
:102560000A6842EA0C025A6003680D4A934206D098
:10257000B3F1804F03D0A2F59432934204D124F0FA
:1025800080044A6814439C60012380F83D30002396
:1025900080F83C30184610BC70470220704700BFDE
:1025A000002C014090F83C30012B22D0012380F810
:1025B0003C30CB6823F440738A68134323F4806370
:1025C0004A68134323F400630A68134323F48053D7
:1025D0000A69134323F400534A69134323F48043E5
:1025E000CA69134302685364002380F83C301846DC
:1025F00070470220704770477047000070B50D4E5D
:102600000D4D761BB61006D0002455F8043B01345E
:102610009847A642F9D1094E094D00F0D5F8761B2E
:10262000B61006D0002455F8043B01349847A64262
:10263000F9D170BD082800080828000810280008F3
:1026400008280008830730B548D0541E002A3FD020
:102650000346CAB201E0013C3AD303F8012B9D07BF
:10266000F9D1032C2DD9CDB245EA05250F2C45EA29
:10267000054536D9A4F1100222F00F0C03F1200E0B
:10268000E6444FEA121C03F1100242E9045542E904
:10269000025510327245F8D10CF1010214F00C0F02
:1026A00003EB021204F00F0C13D0ACF1040323F07F
:1026B00003030433134442F8045B9342FBD10CF050
:1026C00003042CB1CAB21C4403F8012B9C42FBD179
:1026D00030BD64461346002CF4D1F9E70346144696
:1026E000BFE71A46A446E0E7024B13B1024800F0E8
:1026F00005B87047000000000927000800230146C4
:102700001A46184600F01AB838B5084B084D5B1B3E
:102710009C1007D0043B1D44013C55F804399847F0
:10272000002CF9D1BDE8384000F054B81428000856
:1027300010280008704700BF704700BF2DE9F04720
:10274000DFF87CA00646DAF8000098460F4691466E
:10275000FFF7F0FF1B4B1B68D3F8484124B36568B3
:102760001F2D26DC5EB96B1C0235DAF800006360B1
:1027700044F82570FFF7E0FF0020BDE8F087012353
:1027800004EB8501C1F88890D4F88821AB401A4346
:10279000022EC4F88821C1F80881E4D1D4F88C2134
:1027A0001343C4F88C31DEE703F5A674C3F848413F
:1027B000D5E7DAF80000FFF7BFFF4FF0FF30DCE7A6
:1027C0004804002004280008F8B500BFF8BC08BC85
:1027D0009E467047F8B500BFF8BC08BC9E467047DF
:1027E00000000000000000000102030406070809C1
:1027F00002030405060708090A0B0C0D0E0F101042
:0828000001020000200000208D
:08280800E92600083501000873
:0428100011010008AA
:1028140000080140100000000008014040000000D2
:102824000024F4000100000010000000000000007B
:10283400000000000C03002074030020DC030020CF
:102844000000000000000000000000000000000084
:102854000000000000000000000000000000000074
:102864000000000000000000000000000000000064
:102874000000000000000000000000000000000054
:102884000000000000000000000000000000000044
:102894000000000000000000000000000000000034
:1028A4000000000000000000000000000000000024
:1028B4000000000000000000000000000000000014
:1028C4000000000000000000000000000000000004
:1028D40000000000000000000100000000000000F3
:1028E4000E33CDAB34126DE6ECDE05000B000000B8
:1028F40000000000000000000000000000000000D4
:1029040000000000000000000000000000000000C3
:1029140000000000000000000000000000000000B3
:1029240000000000000000000000000000000000A3
:0C2C54000000000000000000D40500207B
:040000050800116D71
:00000001FF
